{
  "contractName": "TrustGraph",
  "abi": [
    {
      "constant": true,
      "inputs": [],
      "name": "getTrusteeList",
      "outputs": [
        {
          "name": "",
          "type": "uint256[]"
        }
      ],
      "payable": false,
      "stateMutability": "view",
      "type": "function"
    },
    {
      "constant": true,
      "inputs": [
        {
          "name": "",
          "type": "address"
        }
      ],
      "name": "nodes",
      "outputs": [
        {
          "name": "",
          "type": "uint256"
        }
      ],
      "payable": false,
      "stateMutability": "view",
      "type": "function"
    },
    {
      "constant": true,
      "inputs": [
        {
          "name": "",
          "type": "uint256"
        }
      ],
      "name": "nodeList",
      "outputs": [
        {
          "name": "",
          "type": "address"
        }
      ],
      "payable": false,
      "stateMutability": "view",
      "type": "function"
    },
    {
      "constant": true,
      "inputs": [],
      "name": "getRatingList",
      "outputs": [
        {
          "name": "",
          "type": "uint256[]"
        }
      ],
      "payable": false,
      "stateMutability": "view",
      "type": "function"
    },
    {
      "constant": true,
      "inputs": [],
      "name": "getNodeList",
      "outputs": [
        {
          "name": "",
          "type": "address[]"
        }
      ],
      "payable": false,
      "stateMutability": "view",
      "type": "function"
    },
    {
      "constant": true,
      "inputs": [],
      "name": "getTrusterList",
      "outputs": [
        {
          "name": "",
          "type": "uint256[]"
        }
      ],
      "payable": false,
      "stateMutability": "view",
      "type": "function"
    },
    {
      "constant": false,
      "inputs": [
        {
          "name": "trustee",
          "type": "address"
        },
        {
          "name": "rating",
          "type": "uint256"
        }
      ],
      "name": "addEdge",
      "outputs": [],
      "payable": false,
      "stateMutability": "nonpayable",
      "type": "function"
    },
    {
      "constant": true,
      "inputs": [
        {
          "name": "",
          "type": "uint256"
        }
      ],
      "name": "ratingArr",
      "outputs": [
        {
          "name": "",
          "type": "uint256"
        }
      ],
      "payable": false,
      "stateMutability": "view",
      "type": "function"
    },
    {
      "constant": true,
      "inputs": [],
      "name": "numNodes",
      "outputs": [
        {
          "name": "",
          "type": "uint256"
        }
      ],
      "payable": false,
      "stateMutability": "view",
      "type": "function"
    },
    {
      "constant": false,
      "inputs": [
        {
          "name": "addr",
          "type": "address"
        }
      ],
      "name": "addNode",
      "outputs": [
        {
          "name": "",
          "type": "uint256"
        }
      ],
      "payable": false,
      "stateMutability": "nonpayable",
      "type": "function"
    },
    {
      "constant": true,
      "inputs": [
        {
          "name": "",
          "type": "uint256"
        }
      ],
      "name": "trusteeArr",
      "outputs": [
        {
          "name": "",
          "type": "uint256"
        }
      ],
      "payable": false,
      "stateMutability": "view",
      "type": "function"
    },
    {
      "constant": true,
      "inputs": [
        {
          "name": "",
          "type": "uint256"
        }
      ],
      "name": "trusterArr",
      "outputs": [
        {
          "name": "",
          "type": "uint256"
        }
      ],
      "payable": false,
      "stateMutability": "view",
      "type": "function"
    },
    {
      "inputs": [],
      "payable": false,
      "stateMutability": "nonpayable",
      "type": "constructor"
    },
    {
      "anonymous": false,
      "inputs": [
        {
          "indexed": false,
          "name": "trusterIndex",
          "type": "uint256"
        },
        {
          "indexed": false,
          "name": "trusteeIndex",
          "type": "uint256"
        },
        {
          "indexed": false,
          "name": "rating",
          "type": "uint256"
        }
      ],
      "name": "Rating",
      "type": "event"
    }
  ],
  "bytecode": "0x6060604052341561000f57600080fd5b6000600281905550610a46806100266000396000f3006060604052600436106100ba576000357c0100000000000000000000000000000000000000000000000000000000900463ffffffff1680630635ae36146100bf578063189a5a1714610129578063208f2a31146101765780634539f84b146101d957806353f3b7131461024357806361309dcd146102ad5780637357b41e146103175780638a86756a1461035957806394ca304b146103905780639d95f1cc146103b9578063b4dbda4014610406578063ee967ea41461043d575b600080fd5b34156100ca57600080fd5b6100d2610474565b6040518080602001828103825283818151815260200191508051906020019060200280838360005b838110156101155780820151818401526020810190506100fa565b505050509050019250505060405180910390f35b341561013457600080fd5b610160600480803573ffffffffffffffffffffffffffffffffffffffff169060200190919050506104d2565b6040518082815260200191505060405180910390f35b341561018157600080fd5b61019760048080359060200190919050506104ea565b604051808273ffffffffffffffffffffffffffffffffffffffff1673ffffffffffffffffffffffffffffffffffffffff16815260200191505060405180910390f35b34156101e457600080fd5b6101ec610529565b6040518080602001828103825283818151815260200191508051906020019060200280838360005b8381101561022f578082015181840152602081019050610214565b505050509050019250505060405180910390f35b341561024e57600080fd5b610256610587565b6040518080602001828103825283818151815260200191508051906020019060200280838360005b8381101561029957808201518184015260208101905061027e565b505050509050019250505060405180910390f35b34156102b857600080fd5b6102c061061b565b6040518080602001828103825283818151815260200191508051906020019060200280838360005b838110156103035780820151818401526020810190506102e8565b505050509050019250505060405180910390f35b341561032257600080fd5b610357600480803573ffffffffffffffffffffffffffffffffffffffff16906020019091908035906020019091905050610679565b005b341561036457600080fd5b61037a600480803590602001909190505061083d565b6040518082815260200191505060405180910390f35b341561039b57600080fd5b6103a3610861565b6040518082815260200191505060405180910390f35b34156103c457600080fd5b6103f0600480803573ffffffffffffffffffffffffffffffffffffffff16906020019091905050610867565b6040518082815260200191505060405180910390f35b341561041157600080fd5b610427600480803590602001909190505061092d565b6040518082815260200191505060405180910390f35b341561044857600080fd5b61045e6004808035906020019091905050610951565b6040518082815260200191505060405180910390f35b61047c610975565b60048054806020026020016040519081016040528092919081815260200182805480156104c857602002820191906000526020600020905b8154815260200190600101908083116104b4575b5050505050905090565b60006020528060005260406000206000915090505481565b6001818154811015156104f957fe5b90600052602060002090016000915054906101000a900473ffffffffffffffffffffffffffffffffffffffff1681565b610531610975565b600580548060200260200160405190810160405280929190818152602001828054801561057d57602002820191906000526020600020905b815481526020019060010190808311610569575b5050505050905090565b61058f610989565b600180548060200260200160405190810160405280929190818152602001828054801561061157602002820191906000526020600020905b8160009054906101000a900473ffffffffffffffffffffffffffffffffffffffff1673ffffffffffffffffffffffffffffffffffffffff16815260200190600101908083116105c7575b5050505050905090565b610623610975565b600380548060200260200160405190810160405280929190818152602001828054801561066f57602002820191906000526020600020905b81548152602001906001019080831161065b575b5050505050905090565b60008060003392508473ffffffffffffffffffffffffffffffffffffffff168373ffffffffffffffffffffffffffffffffffffffff16141515156106bc57600080fd5b6000808473ffffffffffffffffffffffffffffffffffffffff1673ffffffffffffffffffffffffffffffffffffffff1681526020019081526020016000205491506000808673ffffffffffffffffffffffffffffffffffffffff1673ffffffffffffffffffffffffffffffffffffffff16815260200190815260200160002054905060008214156107535761075083610867565b91505b60008114156107685761076585610867565b90505b6003805480600101828161077c919061099d565b916000526020600020900160006001850390919091505550600480548060010182816107a8919061099d565b916000526020600020900160006001840390919091505550600580548060010182816107d4919061099d565b9160005260206000209001600086909190915055507f666b035fd72927a0209579d12d545cf3808670972e8411ced4b9e56b451277fa60018303600183038660405180848152602001838152602001828152602001935050505060405180910390a15050505050565b60058181548110151561084c57fe5b90600052602060002090016000915090505481565b60025481565b60006001805480600101828161087d91906109c9565b9160005260206000209001600084909190916101000a81548173ffffffffffffffffffffffffffffffffffffffff021916908373ffffffffffffffffffffffffffffffffffffffff160217905550506002600081548092919060010191905055506002546000808473ffffffffffffffffffffffffffffffffffffffff1673ffffffffffffffffffffffffffffffffffffffff168152602001908152602001600020819055506002549050919050565b60048181548110151561093c57fe5b90600052602060002090016000915090505481565b60038181548110151561096057fe5b90600052602060002090016000915090505481565b602060405190810160405280600081525090565b602060405190810160405280600081525090565b8154818355818115116109c4578183600052602060002091820191016109c391906109f5565b5b505050565b8154818355818115116109f0578183600052602060002091820191016109ef91906109f5565b5b505050565b610a1791905b80821115610a135760008160009055506001016109fb565b5090565b905600a165627a7a723058201a5a897d71d0acce72dd34a27ee1c38f7aef6ab1659a7e2789392f213b64d2a70029",
  "source": "pragma solidity ^0.4.4;\n\ncontract TrustGraph {\n\n    mapping (address => uint) public nodes;\n    address[] public nodeList;\n\n    uint public numNodes;\n\n    uint[] public trusterArr;\n    uint[] public trusteeArr;\n    uint[] public ratingArr;\n\n    event Rating(uint trusterIndex, uint trusteeIndex, uint rating);\n\n    function TrustGraph() {\n\n        numNodes = 0;\n\n    }\n\n    function addNode(address addr) returns(uint) {\n        \n        //require(nodes[node] != 0);\n\n        nodeList.push(addr);\n        numNodes++;\n        nodes[addr] = numNodes;\n        return numNodes;\n\n    }\n\n    function addEdge(address trustee, uint rating) public {\n        \n        address truster = msg.sender;\n\n        require(truster != trustee);\n\n        uint trusterIndex = nodes[truster];\n        uint trusteeIndex = nodes[trustee];\n\n        if (trusterIndex == 0) {\n            trusterIndex = addNode(truster);\n        }\n\n        if (trusteeIndex == 0) {\n            trusteeIndex = addNode(trustee);\n        }\n\n        trusterArr.push(trusterIndex - 1);\n        trusteeArr.push(trusteeIndex - 1);\n        ratingArr.push(rating);\n\n        Rating(trusterIndex - 1, trusteeIndex - 1, rating);\n\n    }\n\n    function getNodeList() public constant returns(address[]) {\n        return nodeList;\n    }\n\n    function getTrusterList() public constant returns(uint[]) {\n\n        return trusterArr;\n    }\n\n    function getTrusteeList() public constant returns(uint[]) {\n\n        return trusteeArr;\n    }\n\n    function getRatingList() public constant returns(uint[]) {\n\n        return ratingArr;\n    }\n\n    // function getEdgeList() public constant returns(uint[], uint[], uint[]) {\n\n    //     return (trusterArr, trusteeArr, ratingArr);\n    // }\n}\n",
  "sourcePath": "/Users/irisli/project-nosedive/client/contracts/TrustGraph.sol",
  "compiler": {
    "name": "solc",
    "version": "0.4.18+commit.9cf6e910.Emscripten.clang"
  },
  "schemaVersion": "1.0.1",
  "updatedAt": "2018-01-14T19:36:09.041Z"
}